:020000040800F2
:1010000000500020116F00080D6F00080B6F0008E2
:101010000B6F00080B6F00080B6F0008000000004A
:101020000000000000000000000000000D6F00083C
:101030000D6F0008000000000D6F00080D6F000824
:101040000B6F00080B6F00080B6F00080B6F000898
:101050000B6F00080B6F00080B6F00080B6F000888
:101060000B6F00080B6F00080B6F00080B6F000878
:101070000B6F00080B6F00080B6F00080B6F000868
:101080000B6F00080B6F00080B6F00080534000899
:10109000E5330008F53300080B6F00080B6F0008FC
:1010A0000B6F00080B6F00080B6F00080B6F000838
:1010B000351400080B6F00080B6F00080B6F000859
:1010C0000B6F00080B6F00080B6F00080B6F000818
:1010D0000B6F00080B6F00080B6F00080B6F000808
:1010E0000B6F00080B6F00080B6F00080B6F0008F8
:1010F0000B6F00080B6F00080B6F00080B6F0008E8
:101100000B6F00080B6F00080B6F00080B6F0008D7
:101110000B6F00080B6F00080B6F00080B6F0008C7
:101120000B6F00080B6F00080B6F00080B6F0008B7
:101130000B6F00080B6F00080B6F000833340008BA
:1011400013340008233400080B6F00080B6F0008ED
:1011500010B504460846114664681A46A04710BDFB
:1011600008B58368984708BD7047000010B508208F
:1011700000F00CFD012812D0082000F007FD022825
:1011800012D00C4C002240F20561206802F07FF979
:1011900000224FF4D771206802F079F910BD054B99
:1011A000186801F0DDFCE7E7024B186801F074FCF9
:1011B000E7E700BF8805002008B505F033FC01F023
:1011C00029FE08BD10B504468188006805F0EFF9D6
:1011D000003818BF0120A379181A18BF012010BDCC
:1011E000FEE7000030B583B000238DF800308DF8A5
:1011F00001300D4C23788DF802300A238DF803302E
:101200000A4B186803685D6804236A464FF4E97165
:10121000A84723780133DBB22370FF2B01D003B042
:1012200030BD00222270FAE77C05002088050020EE
:1012300010B5504B9988186805F0BCF905F0C4F951
:101240004D4C2046FFF7BEFF0146102000F0B4FCD5
:101250004A48FFF7B7FF0146112000F0ADFC2046D9
:10126000FFF7B0FF20B90E2000F090FC012864D1F8
:10127000434B9988186805F095F90121132000F077
:101280009BFC0E2000F082FC012860D03D4B998829
:10129000186805F089F90021142000F08DFC3A4807
:1012A00001F096FB06F0C6FB0446384B186806F0C2
:1012B000C5FB0146204606F0C9FC0146122000F09D
:1012C00089FC334B186800F025FC06F0B7FB314968
:1012D00006F0BCFC0146BE2000F07CFC04F0CAF91C
:1012E00004F0DAFC2C4B186802F03CF9FFF77AFFA7
:1012F0000B2000F04BFC0146284C204605F05FFC1B
:101300000A2000F043FC0146204605F056FC0C2064
:1013100000F03CFC02460421204605F07CFD0D2037
:1013200000F034FC02460621204605F074FD1C4BFB
:101330001968232000F040FC10BD114B99881868F3
:1013400005F032F90021132000F036FC99E70B4834
:10135000FFF738FF20B9242000F018FC222895DD83
:10136000084B9988186805F01DF90121142000F038
:1013700023FC94E7C40600205C06002054060020ED
:101380009C06002094060020D406002000000020C7
:101390008C0500200000204184050020000400404E
:1013A00018070020B0F5D77F00D0704708B509783E
:1013B0000E2000F001FC08BD38B504460D4606209D
:1013C00000F0E4FB58B9082000F0E0FB01280BD046
:1013D000082000F0DBFB02280BD0002038BD294696
:1013E0002046FFF7DFFFEEE729462046FFF7DAFF4A
:1013F000EEE72946204601F093FBEEE710B50638EC
:1014000007280ED8DFE800F01104110D0E0E0E0EA5
:10141000074B1C68072000F0B9FBC1B2204604F05E
:1014200095F910BD00F080FAFBE7FFF79FFEF8E7A3
:101430008005002008B5024B186800F033FB08BD9A
:101440008C05002080B5ADF5016D00F055F900F078
:10145000EAF9864D00222946854801F0FDFA01226D
:101460002946844801F0F8FA07234FF400528249D4
:10147000824800F0D4FF824C07234FF4805221466B
:10148000804800F0CCFF0723102229467E4800F058
:10149000C6FF0723042229467C4800F0C0FF07232B
:1014A000082229467A4800F0BAFF07232022214665
:1014B000784800F0B4FF072340222146764800F028
:1014C000AEFF072308222146744800F0A8FF072337
:1014D00010222146724800F0A2FF07230122214674
:1014E000704800F09CFF0723022221466E4800F05E
:1014F00096FF04234FF4005221466C4800F08FFF02
:1015000004234FF480422146694800F088FF0423F9
:101510004FF400622946674800F081FF04234FF42E
:1015200080522946644800F07AFF01F0CBF900F0C0
:1015300029F94FF480414FF0007005F029F800F0D0
:1015400069F901F039FC00F079F900F0EDF900F0EB
:10155000BFF90DF5FD644FF08041204600F048FAD8
:10156000564B1C600DF28C5501230222544928462B
:1015700001F07EFE534BCDF88035534BCDF88035CE
:10158000524BCDF88435524BCDF88835B1AF01229E
:101590002946384602F0EEFC8EAE3A4629463046E1
:1015A00004F0A2F8072000F0F1FAC1B2304604F0CE
:1015B000CDF8484B1D60DFF82081C8F80070474B1C
:1015C0001E600DF5B061284601F052FF0123019322
:1015D00000930023424A434903A800F097FBD8F840
:1015E0000020414B1A6003F057F80A223F49204679
:1015F00000F022FA64223E49204600F01DFAC8227B
:101600003C49204600F018FA092000F0BFFA0128F2
:1016100017D000210E2000F0CFFA03F03DF804218E
:101620000F2000F0C9FABF20FFF7E8FEFFF79EFD8C
:10163000062000F0ABFA70B900210E2000F0BCFAD1
:1016400009E0244B186801F017FBE2E70DF10B01EC
:101650008FA802F0A9FD00238DF80B3003A800F03D
:101660003BFD939B002BF6D1F0E700BF0008014043
:10167000D4060020D006002000100140C40600203F
:10168000000C0140BC060020B4060020AC0600207F
:10169000A40600209C060020940600208C06002052
:1016A000840600207C060020740600206C060020C2
:1016B000640600205C060020540600208C050020F3
:1016C00000640040AC7F0008BC7F0008B91300082C
:1016D0006D11000888050020840500208005002089
:1016E00090A00008004800402C070020B911000815
:1016F000311200086911000808B5204805F0B2F859
:101700004FF0E0231E4AC3F80C2D40F2023005F0E2
:1017100007F940F2033005F003F94FF4417005F08A
:10172000FFF840F2053005F0FBF840F2923005F08A
:10173000F7F840F20E3005F0F3F84FF4607005F062
:10174000EFF840F2813005F0EBF84FF4207005F02F
:10175000E7F840F2093005F0E3F840F2862005F0A2
:10176000DFF84FF4407005F0DBF840F2993005F0F7
:10177000D7F84FF4437005F0D3F808BD60A4000813
:101780000003FA0530B597B004F09AFD00F5FF3577
:1017900005F2FD15AD021422002101A800F039FE6A
:1017A0001A4B01934FF40053ADF8083001238DF824
:1017B0000A308DF80B30164A03920422ADF810203F
:1017C0008DF8123000238DF8133004F05DFD1421E4
:1017D00001A804F067FD15902B6D834201D117B06D
:1017E00030BD04F07FFE284604F038FE002407E0F8
:1017F00001AB53F8241005EB840004F08DFE013496
:10180000142CF5D904F07AFEE9E700BF001001407E
:10181000000C014008B51C2005F0CCFBE0211C2089
:1018200005F0D4FB08BD08B54FF41C71032005F08A
:1018300031F9002005F000F908BD000030B583B093
:10184000002000F0A3F9C4B21F4DA02302220321FF
:10185000284604F06DFE402301220021284604F0B2
:1018600067FE1A4805F030F96CB1022C1BD0174CFA
:10187000204605F04DF9204605F053F9204605F0C5
:101880003BF903B030BD114C002301934FF40062CB
:10189000009202222821204605F050F9032120461B
:1018A00005F044F9E3E7094D002401944FF4006387
:1018B0000093234602222021284605F03FF92146C5
:1018C000284605F033F9D2E7000801400030014016
:1018D00010B54FF4007302220321104804F028FED3
:1018E0000F4C1049204605F0AFFA0821204605F0BC
:1018F000BFFA0021204605F0C4FA0C21204605F06D
:10190000CCFA0021204605F0C2FA0021204605F05D
:10191000CAFA204605F0CDFA10BD00BF000801400C
:10192000003801409458090010B5304C02231A4683
:101930001946204604F0FCFD0123022211462046F0
:1019400004F0F6FDA4F58434204605F031F90021B9
:10195000204605F019F9204605F011F90622042168
:10196000204605F02EF906221146204605F029F9F9
:101970000421204605F0EBF90621204605F0E7F9A1
:101980000421204605F0FDF90621204605F0F9F96D
:101990000421204605F01AFA0621204605F016FA21
:1019A0000B2000F0F3F80146204605F008F90C2062
:1019B00000F0ECF802460421204605F02CFA0D2038
:1019C00000F0E4F802460621204605F024FA012141
:1019D000204605F030FA0A2000F0D8F801462046EB
:1019E00005F0EBF8204605F0DEF810BD000C0140D4
:1019F00038B505460C460162084605F0C0F8204699
:101A000005F0CCF80A4B1968C1F31A11094BA3FB76
:101A10000131C9090139204605F0CFF84FF6FF71B1
:101A2000204605F0CCF800236B62284638BD00BF85
:101A300078050020C55A7C0AF8B5436A032B00DDFF
:101A4000F8BD04460E461546006A05F0B1F8636A13
:101A5000134F0122F95C206A05F0B3F8636A002293
:101A6000F95C206A05F0D7F9636A44F8236003F152
:101A7000080105EB850202EB8202920024F8112096
:101A800002219940206A05F06DF80021206A05F0D6
:101A9000D8F9206A05F087F8636A01336362CFE7FB
:101AA000C47F0008F8B50546002424E00226A640BD
:101AB0003146286A05F05AF810B3286A05F0BFF9D4
:101AC00087B22B6A03EB84035A6B04F1080135F8E3
:101AD00011100A445A6355F824309847286A05F0D3
:101AE000AEF9C01B04F10C0325F813003146286A37
:101AF00005F042F80134032C0BDC6B6AA342D5DC01
:101B00006B6AA342F6DC0221A140286A05F034F892
:101B1000F0E7F8BD0146002210460FE002F10C0389
:101B200031F813304FF47A7C0CFB03F302F1080C0C
:101B300031F81CC093FBFCF3184401324B6A93420A
:101B4000ECDC704708B5C0EBC0020B4B03EB820323
:101B5000DB688B420EDC084B03EB82031B698B4274
:101B600001DAFF2007E0054B43F82010FFF746FCA1
:101B7000002000E0FF2008BD248B000804000020A6
:101B8000014B53F82000704704000020024B53F82B
:101B900020004011704700BF0400002008B5054B2D
:101BA00053F8200005F04AFF4FF0745105F09AFFFA
:101BB00008BD00BF040000204901024B43F820107B
:101BC000704700BF04000020014B43F8201070470D
:101BD0000400002010B5044608464FF0844105F08B
:101BE00081FF06F045F9024B43F8240010BD00BF09
:101BF0000400002070B506460024074DBE2C09DC09
:101C00003146686800F066FB10B101341C35F5E719
:101C1000E0B270BDC020FCE7248B00080023064A18
:101C2000BE2B07DC118B814202D001331C32F7E757
:101C3000D8B27047C0207047248B0008C0EBC000AA
:101C4000014B03EB80007047248B000838B500245B
:101C5000074D01E001341C35BE2C07DC2B8B002B1B
:101C6000F8D06969E0B2FFF7AFFFF3E738BD00BF16
:101C7000248B0008014B1954704700BF90050020C9
:101C8000024A135C0B431354704700BF90050020B9
:101C9000024A135C23EA01031354704790050020A5
:101CA000014B185C704700BF90050020C0EBC000DE
:101CB000024B03EB8003987E704700BF248B000823
:101CC00008B52021806805F01AF908BD08B58068BC
:101CD00005F00DF908BD10B504464368597A5868F7
:101CE00004F052FB636804F12A02597A586804F040
:101CF0005DFB63688022597A586804F067FB63686B
:101D0000597A586804F037FB10BD000070B50446DE
:101D10000D465349016053490160856003730261B8
:101D2000012101754175817500228261C26180F8CF
:101D30002020426280F828109DF8101080F82910A9
:101D40009DF8141080F82A1247494160032A07D8E9
:101D500061680868A84203D01C3161600132F5E770
:101D6000424A1460002B74D062685069002B73D013
:101D700063681B8B0222032104F0DAFB4FF4E1318C
:101D8000284605F061F80821284605F071F84FF45F
:101D90000051284605F075F80C21284605F07DF81D
:101DA0000021284605F073F80021284605F07BF84D
:101DB000284605F08EF8284605F090F86368197AF1
:101DC000586804F083FA6368197A586804F0CAFA0C
:101DD00063682E1D3246197A586804F0DEFA63688B
:101DE0000022197A586804F09BFA63680022197A75
:101DF000586804F089FA6368197A586804F09CFA04
:101E00006368597A586804F061FA63683246597A0F
:101E1000586804F0C2FA63680022597A586804F0DE
:101E20007FFA63680022597A586804F06DFA636893
:101E3000597A586804F080FA6368597A586804F04F
:101E40009AFA2046FFF747FF284605F032F8204669
:101E500070BD6268D06889E763681B8A8AE700BF43
:101E600010A000081CA0000820A0000850060020B8
:101E700038B50D460469437D3BB1216839B1284628
:101E800000F028FA18B10834F7E7002401E02368CD
:101E90000BB1204638BD1C46FBE738B504460D465D
:101EA00001E0002373B163680222197A586804F0D4
:101EB00022FA0028F5D194F828300BB10023F1E77D
:101EC0000123EFE76368197A586804F05DFA6368E4
:101ED000AAB2197A586804F079FA636894F8202055
:101EE000D201A83222440232197A586804F05EFA0C
:101EF00063680222197A586804F0F8F96368197A5D
:101F0000586804F038FA94F82030B3FA83F35B0988
:101F100084F82030002384F8283038BD10B50446FA
:101F2000837D73B10A2910D0436A7F2B0DD090F8BE
:101F3000202000EBC2121A4482F8AA100133436237
:101F400010BD806804F0BAFFFAE794F82030626AA6
:101F500004EBC313134483F8AA10511C2046FFF767
:101F60009CFF00236362EBE710B50C46802A28BF74
:101F7000802211464FF0000C0AE090F8203014F84F
:101F80000CE000EBC313634483F8AAE00CF1010CEE
:101F90008C45F2D3FFF781FF10BD38B505460C46DE
:101FA000084600F0AEF9024621462846FFF7DCFF5E
:101FB00038BD000010B50446084600F0F5F900F001
:101FC000DAF9237D83420DD000236375237B0BB3A5
:101FD000626850690BB363681B8B0122002104F017
:101FE000A7FA10BD01236375237B6BB1626850694A
:101FF0006BB163681B8B0222032104F099FA084934
:102000002046FFF7CAFFECE76268D068F0E7636834
:102010001B8AF0E76268D068DCE763681B8ADCE74C
:102020000888000830B585B00446084600F0BCF9C1
:102030000378302B11D0322B0DD04FF46125637D06
:1020400073B92946A06804F0FFFE0021A06804F0DF
:1020500018FF05B030BD0D4DF1E74FF4E135EEE767
:102060000A22294601A800F05BF909492046FFF73A
:1020700094FF08492046FFF790FF01A92046FFF78B
:102080008CFF05492046FFF788FFDAE7105522004C
:10209000AC850008B4850008CC8A000810B5044659
:1020A000084600F081F9037823B1303B18BF0123C3
:1020B00084F8293094F8293023B105492046FFF7E8
:1020C0006CFF10BD03492046FFF767FFF9E700BF2B
:1020D000C4850008D0850008F8B504464368597ADD
:1020E000586804F06CF90646C0F1800558B92046DE
:1020F000FFF7F1FD07E05A1CE261234493F82A1030
:10210000A06804F0DBFE94F8293013B1E369AB4218
:10211000F1DB0821A06804F0F2FEE0B9002D28DD13
:10212000C6F17F06264496F82A300A2B17D00D2BCD
:1021300015D094F82A30212B1BD1A369CBB12046AE
:10214000FFF7C9FD0023E361A3695B6804F5D5715E
:10215000204698470DE0A06804F0C9FEDEE76368FA
:10216000597A586804F010F9012D03DC2046FFF776
:10217000B2FDF8BD6319002283F82A20E26104F160
:102180002A072021384600F0C3F80646037823BB0F
:102190000A21384600F0BCF80646002384F8AA312C
:1021A000337803B300233370A3612A49384600F023
:1021B00091F80646E8B904F5D5712046FFF7FAFE16
:1021C000A369002B3CD0A06804F095FEA3695B686E
:1021D00004F5D57120469847C8E7411C04F5D57031
:1021E00000F086F8DCE70D21384600F091F806464D
:1021F000D8E71949384600F06DF8064668B994F8F2
:102200002A322BB104F5D5712046FFF70BFFD7E733
:1022100012492046FFF7C1FED2E71149384600F0C7
:1022200059F8064628B904F5D5712046FFF736FF60
:10223000C6E739462046FFF71BFEA0612E46BFE7E2
:10224000012E93DD637D002B90D006492046FFF7D9
:10225000A4FE8BE7DC850008E8850008F48500080B
:10226000108600081886000808B5044B1B681A6819
:102270001268C1B21846904708BD00BF5006002042
:10228000704708B500F000FE08BD000000B583B03F
:102290000649D1F8F027D1F8EC37D1F8E8170091CA
:1022A000034900F0F3FA03B05DF804FB00F0FF1FF0
:1022B0003486000810B50446FFF7C8FC02492046E2
:1022C00000F0E4FA10BD00BF4886000808B501F030
:1022D0006BFF08BD431E013913F8010F11F8012FE0
:1022E00010B10AB19042F7D0801A18BF0120704790
:1022F000013911F8013F0BB90370704700F8013B39
:10230000F7E7034600201A5C02B970470130FAE78C
:102310000346184613F8012B0AB18A42F9D17047D7
:10232000002970B518DA2D23012400F8013B494239
:10233000034691FBF2F602FB161130311970311E83
:102340001D4603F10103F4DC00221A700246954297
:102350000AD8241A181904E004D1302341700370FC
:10236000012070BD0024E3E711782E7802F8016B9C
:1023700005F80119EBE730B503782D2B11D14FF09B
:10238000FF34013000210A25431E01E005FB012135
:1023900013F8012F303AD0B20928F7D904FB01F025
:1023A00030BD0124EEE7000010B5134C014610F8D3
:1023B000012BA2F10A03DBB2162B19D824FA03F37E
:1023C000DA07F3D40846FFF79CFF0138084481423E
:1023D00004460AD2237801380A3BDBB2162B04D814
:1023E000054A22FA03F3DB07F1D40023637001E00E
:1023F000002AE7D1084610BD09004000002310B5AF
:10240000934200D110BD51F8234040F823400133DE
:10241000F6E7013A00D2704740F8041BF9E72DE9CE
:10242000F0410D4616461F460160828000248471EB
:1024300003F1FF3CBCF1080F06D8DFE80CF00932CD
:102440000F15191F23282D0000240227A0462BE07A
:102450000123837100240227A04625E00124847112
:1024600002274FF000081FE000240127A0461BE0D0
:102470000123837100241F46A04615E0002427464F
:10248000A04611E0002427464FF003080CE0012489
:1024900027464FF0030807E0002402274FF0030807
:1024A00002E001244FF000083CB933463A46414669
:1024B000284604F03DF8BDE8F0813146284604F096
:1024C00071F8F2E7024B4FF400421A80704700BFE8
:1024D000CC06002008B5FFF7F5FF08BD70B50C1E4F
:1024E000ACBF01234FF0FF335C430133064608BF06
:1024F0002D234FF0640208BF06F8013B611104F080
:102500001F040546544330460A22FFF709FF2E22D6
:102510006411092C3254D8BF302206EB0003D8BF17
:102520005A7021464FF00A02CCBF581C981CFFF786
:10253000F7FE284670BDF0B503782D2B17D14FF06C
:10254000FF36013000244FF00A0C02E018460CFB65
:102550000454034613F8012BA2F13005EFB2092F02
:10256000F4D9AAB98C40144406FB04F0F0BD01264E
:10257000E8E78B4003EB650393FBF5F30CFB05F5F4
:102580001A4410F8013F303BDFB2092FF1D9E9E7D7
:102590000A250022AC46F4E72DE9F04105460F4636
:1025A000161E02DD0A46002108E04FF0200813F055
:1025B000010414D0002422E00131013210780028F7
:1025C000FAD1B14206DA761A13F0020F04D14FF0B5
:1025D0002008ECE70026F7E74FF03008E7E7002E89
:1025E0000DDD2B681B684146284698470134013EA3
:1025F000F5E72B681B68284698470134013739787E
:102600000029F6D106E02B681B684146284698470A
:102610000134013E002EF6DC2046BDE8F0812DE9B4
:10262000F04184B00746DDF828800C9859B11E4669
:102630000C4613B10A2A13D0002600238DF80D3062
:102640000DF10D0518E030238DF8003000238DF8D2
:1026500001300B9B424669463846FFF79DFF32E04A
:10266000002901DB0026E8E74C420126E5E730318E
:1026700005F8011DB4FBF2F44CB1B4FBF2F102FB1E
:1026800011410929F3DDA0F13A031944EFE79EB1A6
:10269000B8F1000F0BD00B9B13F0020F07D03B6873
:1026A0001B682D213846984708F1FF3804E02D2398
:1026B00005F8013C013D00260B9B42462946384661
:1026C000FFF76AFF304404B0BDE8F08108B5084662
:1026D000FFF7CAFD08BD70B584B0044615461E4616
:1026E0006846FFF7FBFE33462A4669462046FFF759
:1026F00053FF04B070BD000070B588B006460C46AC
:102700000592002599E0A21C0123A3E0013443F0C7
:1027100002032278302AF9D00022217839291CD9E5
:10272000782900F289805829C0F0868058392029FC
:1027300000F28280DFE801F043808080808080802A
:102740008080806A25806180808080808080808019
:102750008080801A80528080340030296CD302EB54
:102760008202303901EB42020134D6E70599081D97
:102770000590096801B93A493046FFF70DFF054455
:102780005AE00599081D059009686120029001939F
:10279000009201230A223046FFF741FF05444BE037
:1027A0000599081D05900968612002900193009227
:1027B000002310223046FFF732FF05443CE0059924
:1027C000081D0590096841200290019300920023A2
:1027D00010223046FFF723FF05442DE00599081D20
:1027E00005900968612002900193009200230A225B
:1027F0003046FFF714FF05441EE00599081D0590BB
:1028000009683046FFF767FF054415E00599081D84
:10281000059009688DF81C1000218DF81D1007A97E
:102820003046FFF7B9FE054406E0144633681B68DE
:1028300021783046984701350134237863B1252B40
:10284000F4D1621C63783BB1252BEED02D2B3FF4E5
:102850005AAF002314465CE7284608B070BD00BF9D
:10286000BC8600080FB400B583B004AA52F8041B5C
:10287000054B0193009201A8FFF73EFF03B05DF8FE
:1028800004EB04B0704700BF08A100080EB400B507
:1028900082B003AA52F8041B0192FFF72DFF02B089
:1028A0005DF804EB03B07047034B044A1360023336
:1028B000034A1360704700BFD8060020D4060020EA
:1028C000D006002030B583B0324B93E8030002AB52
:1028D00003E903000025002D2CDD2F4C2F4A012198
:1028E000204603F05AFD2E4A0121204603F05EFDEA
:1028F0004FF480720121204603F012FD4FF48062F4
:102900000121204603F000FD18220121204603F09A
:102910005DFD0121204603F00FFD0121204603F05B
:1029200014FD0121204603F026FD1E4803F0A4FA01
:1029300003B030BD02AB03EB850353F8084C2046CF
:1029400003F058FA204603F05AFA204603F061FAE1
:10295000204603F059FA0121204603F036FA2046BA
:1029600003F0FAF9204603F013FA204603F023FAA5
:102970000D4A02EB45020221204603F04FFA2046A1
:1029800003F084FA4FF46021204603F0F7F9013593
:10299000A1E700BF0CA10008000002404C24014048
:1029A000D80600200024014008070020884205DDE9
:1029B000914209DC90420ADD10467047904206DCE5
:1029C000914203DD1046704708467047084670473D
:1029D00030B583B0046800250BE02289A1882088E7
:1029E000FFF7E4FF02AB03EB450323F8080C0135C6
:1029F0000C34032DF1DDBDF80000BDF802301844A1
:102A0000BDF804301844BDF806301844C0F38F00F8
:102A100003B030BD08B50F4B98420BD003F580636F
:102A2000984211D0A3F50063984205D1072903DC31
:102A3000C8B204E0012903DD03F096F9102008BDB7
:102A4000C9B20831C8B2FAE70529F5DCC9B20A31C2
:102A5000C8B2F4E7000C014070B504460D461646B6
:102A6000012393409BB200221146284603F060FDEB
:102A70002468054BE41A641031462846FFF7CAFF64
:102A8000A4B2024B185570BDD806002008070020DC
:102A900008B5FFF709FF08BD10B5044600224FF442
:102AA000007100F0F4FC00224FF40471204600F0A5
:102AB000EEFC00224FF40871204600F0E8FC10BD47
:102AC000827843781B0243EA024302781343034AA5
:102AD000136043F317031360704700BF140700200F
:102AE000827843781B0243EA024302781343034A85
:102AF000136043F317031360704700BF10070020F3
:102B0000827843781B0243EA024302781343034A64
:102B1000136043F317031360704700BF0C070020D6
:102B200008B503460846B3F5047F08D0B3F5087F1F
:102B300008D0B3F5007F01D1FFF7C2FF08BDFFF752
:102B4000CFFFFBE7FFF7DCFFF8E70000002301E021
:102B500000BF0133014A9342FADB704700127A004A
:102B600010B50446002240F2215100F090FC0022F2
:102B700040F22251204600F08AFC002240F223510C
:102B8000204600F084FC002240F22451204600F050
:102B90007EFC002240F22551204600F078FC002205
:102BA00040F22651204600F072FC002240F22751EC
:102BB000204600F06CFC00224FF4A561204600F096
:102BC00066FC10BD10B582B034238DF800300023B0
:102BD0008DF8013001228DF802208DF803308DF838
:102BE00004308DF805308DF806308DF80730036815
:102BF0005C6808236A4640F21141A04702B010BD4C
:102C000010B582B032238DF8003000238DF80130EA
:102C10008DF802308DF803308DF804308DF80530D2
:102C20008DF806308DF8073003685C6808236A4623
:102C300040F21141A04702B010BD10B582B034235C
:102C40008DF8003001238DF801308DF8023000231B
:102C50008DF803308DF804308DF805308DF806308E
:102C60008DF8073003685C6808236A4640F211411A
:102C7000A04702B010BD000070B582B00546002428
:102C80001A4B1C70FFF79EFFFFF760FF24E004F172
:102C900020038DF8003042238DF8013000238DF899
:102CA000023064228DF803208DF804308DF8053051
:102CB0008DF806308DF807302B685E6808236A4669
:102CC00040F211412846B047FFF740FF2846FFF782
:102CD00097FFFFF73BFF0134082CD8DD2846FFF7AC
:102CE000ACFFFFF733FF02B070BD00BF0003002050
:102CF00008B503F0E5FA00F5FF3000F2FF1080029E
:102D000008BD2DE9F043ADF2044DFFF7F1FF074692
:102D1000024600234FF0FF3603E052F8041B0E403A
:102D20000133FF2BF9DD03F0AFFA4FF480724FF05F
:102D3000FF316846FFF76DFB002400E001347E2C74
:102D40001AD8E5B22846FEF7B1FF0028F6D128468A
:102D5000FEF774FF80462846FEF7A2FF0DEBC4097C
:102D600089F80300B8F818302DF834302846FEF7FB
:102D700007FFC9F80400E1E7FE21684603F092FA74
:102D8000FE9003F0AFFBB6F1FF3F01D100240AE053
:102D9000384603F063FBF9E75DF8241007EB840085
:102DA00003F0BAFB0134FF2CF6D903F0A7FBFE9821
:102DB0000DF2044DBDE8F083F8B5FFF799FF064624
:102DC00003F062FAFE21304603F06CFAD6F8F833CD
:102DD000834201D1002503E04FF0FF3019E00135B7
:102DE0007E2D15D836F83500FEF718FF0446C028AA
:102DF000F5D0FEF75BFF0028F1D106EBC507796837
:102E00002046FEF7E1FEF9782046FEF733FFE6E7BD
:102E10000020F8BD014B1860704700BF1C07002060
:102E200003280AD8064B03EBC0035B680BB90020EC
:102E30007047034B13F8300070470020704700BF05
:102E400004030020032801D900207047024B03EB44
:102E5000C0035868704700BF0403002008B5074B43
:102E600003EBC10292F804C053F83130044A52F81F
:102E70002C2001460348FFF7F5FC08BD20A10008FF
:102E800014A10008C486000810B50C4B5B680BB198
:102E9000002409E00A48FFF7E5FC10BD074B13F8D2
:102EA0003410FFF7DBFF0134032CF6D8034B03EBA0
:102EB000C40358680028F1D1EFE700BF04030020E5
:102EC000D486000810B58AB00F4B01EB410203EB2A
:102ED000820453F82220646801EB410103EB810373
:102EE0009B68D0F858020021089107910693059439
:102EF000049203910291019100910B46012202F08C
:102F0000D7FF0AB010BD00BF4CA10008F0B583B0D8
:102F100004460D4616461F4672B60121D0F85802E7
:102F200003F0D9F8019600970023B5F5006F34BF80
:102F3000002201222946D4F8580203F0D1F80028D3
:102F400006DBD4F85432002B18DC62B603B0F0BDB7
:102F5000D4F85432132BF4DC03F1110204EB021207
:102F600055609760316804EB0312C2F81C11716858
:102F7000C2F820110133C4F85432E2E70121D4F839
:102F8000580203F0A4F8E0E7012801DD00207047B3
:102F9000014B53F8200070472007002030B58BB05C
:102FA00004460D460AE09DF8213006AA09992046FC
:102FB00000F0A6FA03F036FDC4F8F80000230593EC
:102FC00006AB04930DF12103039308AB02930DF1BB
:102FD000220301930DF12303009309AB0122E9B20F
:102FE000D4F8580203F0F3F80028DCD10BB030BD60
:102FF00030B583B0044600F58A7504E0D4F8543245
:10300000013BC4F85432D4F85432002B17DD03F1DD
:103010008053013B1A0105EB0313A95803F1080281
:1030200001921B7900930023B1F5006F34BF002299
:103030000122D4F8580203F053F80028DEDAD4F85D
:1030400054320BB103B030BD0121D4F8580203F063
:1030500042F8F7E7F0B585B00E4615461C461068F5
:10306000B3F800C05A889B88E7885B019BB2520185
:1030700092B24FEA4C1C1FFA8CF14FF0010CCDF8C4
:1030800008C000EA0C0CCDF804C07F01BFB2009765
:1030900003F000F8002333602A6801322A60E380DD
:1030A000A3806380238005B0F0BDF0B585B00F46E6
:1030B00015461C461068B3F800C05A889B88E688FD
:1030C0005B019BB2520192B24FEA4C1C1FFA8CF189
:1030D0004FF0010CCDF808C000EA0C0CCDF804C08C
:1030E0007601B6B2009602F0C5FF00233B602A6865
:1030F00001322A60A380238040F2FF73E380638063
:1031000005B0F0BD70B582B00E4615461C4610687D
:103110001968C9005A68D20001230093034042F0A5
:10312000040241F0040102F0C5FF002333602A6865
:1031300001322A606360236002B070BD30B58BB08D
:103140000546002308930993474906AA03C982E864
:10315000030004930593039302930193D5F8582237
:10316000424B9A420AD0A3F58063D3F8003AC3F3E6
:10317000052300930024C2F81C4221E00023F8E755
:1031800004F11E0205EB8202516871B3029A501CD1
:1031900002900DF1280C0CEB420C2CF8103C023282
:1031A00002920AAB03EB400020F8101C039B042B97
:1031B00024D0029B022B28D0019B022B2CD001345F
:1031C000D5F8F430A3422EDD05EB84035B68B3F53C
:1031D000006FD5D3019A23F060430AA901EB820165
:1031E00041F8183C01320192E0E7039A0AA901EB89
:1031F000420121F8083C01320392D7E708AB6A4646
:1032000003A92846FFF726FFD3E706AB6A4602A9C3
:103210002846FFF74AFFCFE704AB6A4601A92846D4
:10322000FFF770FFCBE7039B002B07DC029B002B13
:103230000BDC019B002B0FDC0BB030BD08AB6A46EA
:1032400003A92846FFF706FFF0E706AB6A4601A987
:103250002846FFF72AFFECE704AB6A4601A9284697
:10326000FFF750FFE8E700BF88A1000800640040B6
:10327000F8B504460D4616461F4600F0E3F8544BD9
:1032800023600023C4F85432C4F85852514B9D4275
:103290002FD003F580639D4258D1002F00F082802B
:1032A0004D4D202302220021284603F041F9202120
:1032B000284603F077F9402302220321284603F031
:1032C00037F9402003F076FEF021402003F07EFE27
:1032D000412003F06FFEF021412003F077FE3F20F4
:1032E00003F068FEF0213F2003F070FE3B4B5C6072
:1032F0002CE0002F41D0384D4FF480730222002182
:10330000284603F015F94FF48071284603F04AF976
:103310004FF4007302220321284603F009F9142018
:1033200003F048FEF021142003F050FE152003F0B6
:1033300041FEF021152003F049FE132003F03AFE70
:10334000F021132003F042FE244B1C60D4F85802F5
:1033500002F0A2FD31462046FFF7B4FD2046FFF7FC
:10336000EDFE0221D4F8580202F0B1FE1021D4F88B
:10337000580202F0ACFE2046F8BD194D4FF4006330
:1033800002220021284603F0D3F84FF400612846BA
:1033900003F008F94FF4805302220321284603F07A
:1033A000C7F8BCE70C4D4FF4805302220021284699
:1033B00003F0BEF84FF48051284603F0F3F84FF4C1
:1033C000005302220321284603F0B2F879E700BF38
:1033D00040A1000800640040000C014020070020CC
:1033E0000008014008B50020FFF7CEFD0021FFF7DF
:1033F000D5FD08BD08B50020FFF7C6FD0121FFF788
:10340000CDFD08BD08B50020FFF7BEFDFFF7F0FDBC
:1034100008BD08B50120FFF7B7FD0021FFF7BEFD8D
:1034200008BD08B50120FFF7AFFD0121FFF7B6FD8C
:1034300008BD08B50120FFF7A7FDFFF7D9FD08BDBE
:1034400070477047084B03600023C0F8F430C0F8A1
:10345000FC3005E003F14002044940F8221001333A
:10346000042BF7DD704700BF98A10008240300205B
:10347000D0F8FC30042B01DD0020704703F140023E
:1034800040F822100133C0F8FC300120704738B5F5
:10349000D0F8F4501D2D0BDD002038BD01339D42C6
:1034A00008DD00EB830464688C42F7D10020F4E768
:1034B0000023F4E700EB8503596005F11E0300EBE0
:1034C00083035A600135C0F8F45003689B6898473D
:1034D0000120E2E738B505460024C0F8F44003684F
:1034E0009B68984707E004F1400355F82300036800
:1034F0005B6898470134D5F8FC30A342F3DC38BD53
:103500002DE9F8430546894690461F4600240AE007
:1035100004F1400355F8230003681E683B46424609
:103520004946B0470134D5F8FC00A042F0DCBDE8C4
:10353000F88370B5054600F1300634460BE034F8E8
:10354000043BC3F3C02123F40063002203EB417169
:103550006868FFF79CFFA31B242B02DCA378322BA7
:10356000EDD170BD2DE9F04182B0054600F10807AC
:103570003E46F31B242B00F39380B378322B00F0EC
:103580008F80002300930193B37803EB4304A400DE
:1035900058342C441AE0C0F307231B0443EA0063A9
:1035A000C0F3074243EA022343EA1063E2791F2A89
:1035B0003DD8C2F11F0223FA02F2009B134300938D
:1035C000647A04EB4404A40058342C44637AFF2B3F
:1035D0005DD0354B1B78002B62D12079FEF7DEFAE7
:1035E0000146206804F07EFA804694F9060004F053
:1035F00025FA414604F06EF904F03AFC94F908C04B
:103600008CEAEC71A1EBEC71C9B24FF0FF328A4049
:1036100020EA0200BCF1000FBDDBE2791F2A20D9AD
:10362000203A00FA02F2019B13430193C8E7944445
:10363000BCF11E0F07DDC2F13F0223FA02F2019B2B
:1036400013430193BCE7A2F11F0003FA00F00099B5
:1036500001430091C2F13F02D340019A1A43019203
:10366000AEE702EB0C03202B05DC00FA02F2009B14
:1036700013430093A4E700FA02F1009B0B4300936D
:10368000C2F12002D040019B0343019398E7686890
:1036900003685C6808236A4636F8041BA04768E79D
:1036A00002B0BDE8F08100BF2807002010B501B3CB
:1036B00002F10C0E00EB8E0E0A2A45D89EF802107D
:1036C000322943D001EB410C4FEA8C0C0CF1580C21
:1036D000844400249CF80910FF2933D073B1013BC6
:1036E000DBB201EB410189005831644600EB010C6B
:1036F000F0E702F1020E00EB8E0EDDE72CB16172F5
:10370000FF238CF8093001201FE0322904D08EF805
:103710000210F5E70133DBB29918092904DC0EEB3E
:10372000830189783229F5D1013BDBB20EEB8302AC
:1037300091788EF802103EF82330AEF80030322334
:103740009370DDE7002000E0002010BD0020FCE7C2
:10375000F8B50C4600F1080600231A461F46194624
:103760003FBB35460022A5EB060CBCF1240F27DC3D
:1037700095F802C0BCF1320F22D00CEB4C0E4FEA90
:103780008E0E0EF1580E8644002309E00133DBB2A1
:103790000CEB4C0C4FEA8C0C0CF1580C00EB0C0EA3
:1037A0009EF809C0BCF1FF0F06D0BEF804E0A645A4
:1037B000ECD157B10020F8BD0132D2B20435D2E7C6
:1037C00000F130060F460121CAE7FFF76FFFF2E76D
:1037D000F0B5089F00243C7000F10806002C42D18F
:1037E0003546AC1B242C38DCAC78322C35D004EBBD
:1037F000440E4FEA8E0E0EF1580E864407E00CEB95
:103800004C0C4FEA8C0C0CF1580C00EB0C0E9EF893
:1038100009C0BCF1FF0F1ED0BEF804408C42EED1AF
:103820002988C1F3C020116021F40061116041EAD0
:10383000407111609EF807201A709EF90820059BC0
:103840001A70DEF80020069B1A609EF90620079B7E
:103850001A700120F0BD0435C3E73C7801253D70A6
:1038600000F13006BAE70020F4E710B48446019C6A
:10387000D9B102F10C0100EB81010A2A27D88A781C
:10388000322A26D002EB4202920058320CEB0200A0
:10389000427AFF2A18D063B1013BDBB202EB42024D
:1038A000920058320CEB0200F2E7911C00EB810110
:1038B000E3E70B88C3F3C022236023F40063236093
:1038C00043EA4273236000E0002010BC70470020F0
:1038D000FBE70020F9E72DE9F04385B0064688466E
:1038E00000F1080900273B462CE02B88C3F3C020D9
:1038F00023F40061029794F9063001932368009342
:1039000094F90830E27941EA40712079C047647A3D
:1039100004EB4404A40058343444637AFF2BE4D10C
:103920000435A5EB0903242B08DCAB78322B05D03A
:1039300003EB4304A40058343444EEE706F13009A5
:103940003B4601270BB94D46EBE705B0BDE8F083D8
:10395000002306E001EB83024FF0320C82F802C034
:103960000133092BF6DD002307E003EB430200EBF4
:103970008202FF2182F861100133322BF5DD70479E
:1039800010B5044600F10801FFF7E2FF04F1300131
:103990002046FFF7DDFF6068FFF79CFD10BD2DE9B5
:1039A000F041884615461F46002426460AE028684E
:1039B00002F072FC064655F8041B08EB840002F086
:1039C000ABFD0134BC42F2DB3046BDE8F081084675
:1039D00000E00430431A242B0ADC8378322B05D014
:1039E0000388534033F40063F3D102E000207047B2
:1039F000002070474B4B1B7803B170472DE9F04115
:103A0000054616460A4600F13001FFF7E0FF0028A0
:103A100000F08580837803EB4304A40058342C44E1
:103A200042E01F2B53D83068C0F30722120442EA49
:103A30000062C0F3074742EA072242EA1062C3F17C
:103A40001F03DBB201208840013822FA03F318403B
:103A500003F0F0FF074694F9060003F0EFFF394644
:103A600003F038FF0146206804F03CF8074620794F
:103A7000FEF71CF920B12079FEF718F9012849D189
:103A8000B4F804804FF08441384604F02BF804F079
:103A9000EFF901465FFA88F0FEF754F8647A04EB18
:103AA0004404A40058342C44637AFF2B37D0E379C4
:103AB00094F9082082EAE271A1EBE271C9B2002A0E
:103AC000AFDB1F2B18D97268203BDBB2BAE71A4470
:103AD0001F2A03DD7068203BDBB2A5E75B1ADBB26F
:103AE0000133DBB23068D8407268C3F120039A40DA
:103AF00010434B1EDBB297E71A44202A01DC3268E0
:103B0000A0E73268DA407068C3F1200398400243AE
:103B1000002397E739462079FEF75CF8BEE7BDE859
:103B2000F08100BF280700202DE9F8439DF8208090
:103B30009DF92460002E79D004460D46174699461B
:103B400086EAE673A3EBE673DBB2202B71D8002E76
:103B50000CDD08EB0603402B6EDC4A462946204666
:103B6000FFF735FF844668B100221DE0B8F13F0F32
:103B700065D84FFA88F33344B3F1FF3FEDDA6FF0C5
:103B8000010051E00021092907DC05EB81039A7847
:103B9000322A01D00131F6E79C46BCF1000F51D02A
:103BA000ACF80090E0E70132312A07DC02EB420377
:103BB00004EB830393F86130FF2BF4D1322A44D015
:103BC0009CF8023000210AE003EB430189005831E0
:103BD000214403EB430304EB830393F86130322B5E
:103BE000F2D102EB420304EB8304A4F85C700A9B5D
:103BF000A3659DF92C3084F85E3084F85F8084F8EA
:103C00006060322384F8613019B14A722B4600207B
:103C100004E08CF80220F9E7013004335A1B242A0F
:103C200002DC9A78322AF7D1BDE8F8836FF00200FF
:103C3000FAE76FF00200F7E76FF00100F4E76FF0CA
:103C40000100F1E76FF00300EEE76FF00400EBE72F
:103C5000B2F5006F12D210B584B09DF920400394E4
:103C6000079C02949DF918400194009313460A465C
:103C700000F10801FFF758FF04B010BD4FF0FF300E
:103C8000704770B584B005461446C2F3407022F008
:103C90000052B2F5006F19D29DF928600396099E73
:103CA00002969DF920600196009342EAC0230A46DD
:103CB00005F130012846FFF737FF0646002221466E
:103CC0006868FFF7E4FB304604B070BD4FF0FF3684
:103CD000F9E72DE9F04F89B08346059206938A46AD
:103CE000079131E0B4F9020003F0A8FE002303932A
:103CF0000290CDF8048000953B46049A0599304621
:103D0000FFF712FF0634A4EB09032A2B1ADC94F9FF
:103D10000530002B16DD2088FDF780FF0490DBF8CE
:103D20000060BAF80070257994F90580069B002B95
:103D3000D8D0B4F9020003F081FE4FF0745103F0C3
:103D4000D1FED3E70AF1320A079BAAEB0303B3F5CE
:103D5000E17F0ADCBAF800104FF6FF73994204D0F5
:103D60000AF102052C46A946CDE709B0BDE8F08F5F
:103D700008B502F0A5FA00F5FF3000F5FF708002EB
:103D800008BD70B582B005460190FFF7F1FF04460B
:103D9000D0F8E86302F078FAFA21204602F082FABD
:103DA000864202D0002002B070BD002305F1080257
:103DB000214601A8FFF78DFF012305F1300204F52C
:103DC000FA7101A8FFF785FF0120ECE7F8B5054679
:103DD0000F460E460EE02079FDF730FF038BA380DF
:103DE000647A04EB4404A40058342C44637AFF2B17
:103DF000F1D10436F31B242B08DCB378322B05D029
:103E000003EB4304A40058342C44EFE7F8BDF8B5A5
:103E100005460F460E460DE0A088FDF7FFFEA08088
:103E2000647A04EB4404A40058342C44637AFF2BD6
:103E3000F2D10436F31B242B08DCB378322B05D0E7
:103E400003EB4304A40058342C44EFE7F8BD000012
:103E5000F0B583B00546FFF78BFF064602462A4BB6
:103E60000121197000234FF0FF3403E052F8041BC6
:103E70000C400133FF2BF9DD02F006FA02F032FBB1
:103E8000022002F025FBB4F1FF3F38D105F108070D
:103E900039462846FFF79AFF05F1300421462846A7
:103EA000FFF794FF0A233A4631462846FFF777FD8D
:103EB0000A23224606F128012846FFF770FD0190EB
:103EC000962305F1580206F150012846FFF767FDD9
:103ED0000190012301AA06F52D712846FFF75FFD29
:103EE00002F00CFB39462846FFF791FF2146284691
:103EF000FFF78DFF044B00221A7003B0F0BD30466F
:103F000002F0ACFAC2E700BF28070020F8B505466A
:103F1000FFF72EFF0446D0F8B46202F0B5F9AA21EB
:103F2000204602F0BFF9864203D02846FFF729FF5A
:103F3000F8BD05F108070A2221463846FEF75EFA69
:103F400005F130060A2204F128013046FEF756FA40
:103F5000962204F1500105F15800FEF74FFA394658
:103F60002846FFF754FF31462846FFF750FF01204F
:103F7000DEE7000038B50446084615460D4B2360C1
:103F80000D4B236061602146FFF772FA04F10801CE
:103F90002046FFF7DDFC04F130012046FFF7D8FC96
:103FA00025B92046FFF7C5FA204638BD2046FFF761
:103FB000ADFFF6E7AC7F0008BCA100082DE9F04199
:103FC00084B00C4615461E469DF83070FDF736FE4F
:103FD000D0F804801449154B1868FEF757FCE7B178
:103FE0001349124B1868FEF751FC4FF084410A98B0
:103FF00003F078FD0D4B1F689DF92C30039303F0FF
:1040000037FF0290019600952346424609493846FB
:10401000FEF73CFC04B0BDE8F0810749034B18688B
:10402000FEF734FCE1E700BF3487000830070020CA
:104030003C870008448700084087000870B50446A4
:104040000846FEF7B1F905462021FEF761F903782D
:10405000A3B1002300F8013B0521FEF76CFA0646E8
:104060002846FDF7C7FDC02812D03146FDF76AFD8E
:1040700048B90A492046FEF709FC03E008492046F2
:10408000FEF704FC70BD07492046FEF7FFFBF9E789
:104090002A4605492046FEF7F9FBF3E77487000836
:1040A000588700088087000898870008F8B50746F9
:1040B0000846FEF779F905460BE0FDF761FD02467B
:1040C0000E493846FEF7E2FB254605F8016B2C2E1B
:1040D00012D12C212846FEF71BF90446067800234E
:1040E00003702846FDF786FDC028E6D12A4604491C
:1040F0003846FEF7CBFBE7E7F8BD00BFB087000806
:10410000B88700082DE9F04107460846FEF74CF94C
:1041100080462021FEF7FCF803789BB10446064652
:10412000002306F8013B4046FDF764FD0546C02824
:1041300029D06378212B0AD07E2B08D02F2B06D0D4
:10414000002406E013493846FEF7A0FB0FE0A61C4A
:10415000012431461048FEF7BDF850B974B1012171
:104160002846FDF795FD0D493846FEF78FFBBDE863
:10417000F0810B493846FEF789FBF8E70121284614
:10418000FDF77EFDEFE7424606493846FEF77EFB27
:10419000EDE700BFD4870008E4870008FC8700082B
:1041A000EC870008988700082DE9F04F8BB0074690
:1041B0000846FEF7F9F80378059346493846FEF7B6
:1041C00065FB00264FF0200822E0434A0392029349
:1041D0000190CDF800A04B46424640493846FEF7D4
:1041E00055FB2846FDF762FD20B12846FDF75EFD30
:1041F00001285AD1E268236961692068029601901A
:10420000009137493846FEF741FB4FF02C08013644
:10421000BE2E51D8F5B22846FDF710FD04462846BB
:10422000FDF73EFD10F0010F02D0059B682BEED18B
:10423000D4F80490D4F808A0B4F818B02846FDF7D4
:104240009FFC0290CDF804B0CDF800A04B4642464A
:1042500024493846FEF71AFB0DF11F0303930DF1B5
:104260001E03029309AB01930DF11D03009307ABED
:1042700008AA29461C480068FFF7AAFA0028B0D00F
:10428000DDF820809DF81C909DF91DA04FF0844121
:10429000099803F027FC03F0EBFD9DF91E309DF813
:1042A0001F20002A91D0114A90E711493846FEF7A5
:1042B000EDFA4FF02C08AAE70E4BD3F8F0270E4981
:1042C0003846FEF7E3FA0D493846FEF7DFFA0BB041
:1042D000BDE8F08F2088000818880008548800087E
:1042E000B8880008248800082C07002010880008DF
:1042F000A488000800F0FF1F08890008448900080E
:104300002DE9F0478AB004460023059306930793EE
:10431000089309930846FEF747F80578702D39D0C1
:10432000632D45D02021FDF7F3FF0378002B48D003
:10433000FEF73AF807462021FDF7EAFF0646037824
:104340000BB9642D44D1002306F8013B3846FDF734
:1043500051FC81463046FEF727F80646B9F1C00FFA
:104360003BD0642D3ED04FF000084FF07E5AB8F19C
:10437000040F62DC20213046FDF7CAFF07460378B0
:10438000002B3AD1B8F1020F37DC55492046FEF731
:104390007DFA1AE0534B1B68002BFBD1514D2C606A
:1043A0005149524B1868FFF796FA00232B600CE036
:1043B0004E4B1868FFF7E4FA4D492046FEF766FABF
:1043C00003E047492046FEF761FA0AB0BDE8F087EE
:1043D00043492046FEF75AFAF7E746492046FEF7DA
:1043E00055FAF2E74946414B1868FFF7B1F9024622
:1043F00041492046FEF74AFAE7E700233B70304682
:10440000FDF7B9FFB8F1030F0BD00AAB03EB88033C
:1044100043F8140C781CFDF7C7FF064608F10108A5
:10442000A5E710213046FEF786F803F007FB4FF0B2
:104430005E5103F057FB8246ECE7742D17D09DF9CF
:1044400024300293CDF804A09DF91C3000939DF810
:104450001830059A494625480068FFF712FC431DAD
:10446000042B32D8DFE803F0262C201A14009DF923
:1044700024300293CDF804A09DF91C3000939DF8E0
:104480001830059A494619480068FFF7E1FBE6E74E
:10449000059A1A492046FEF7F9F996E7069A18494F
:1044A0002046FEF7F3F990E7079A16492046FEF7F3
:1044B000EDF98AE7059A14492046FEF7E7F984E703
:1044C00012492046FEF7E2F97FE7012806DD104B8E
:1044D000024610492046FEF7D9F976E70E4BF7E77A
:1044E0007489000830070020BD3F00082C07002019
:1044F00050890008888900089C890008B489000850
:10450000C8890008DC890008F0890008188A0008BA
:104510004C890008348A00080C88000810B504464D
:104520000C4B1B788BB172B60B4B1868FFF790FCE5
:104530000A492046FEF7AAF9FEF7E3FB024662B6F7
:1045400007492046FEF7A2F910BD0649FEF79EF97D
:10455000FAE700BF280300202C070020608A00082B
:10456000708A00088C8A000810B5044672B6FEF7FF
:1045700023FC62B638B9BF20FCF740FF044920464F
:10458000FEF784F910BD03492046FEF77FF9F9E7ED
:10459000D08A0008E48A000808B502F003FD2DE97E
:1045A000F843054688461746002607E008F8060047
:1045B000013623782C2B13D1BE4211D22C21284650
:1045C000FDF7A6FE044690F80090002303702846ED
:1045D000FDF710FB254605F8019BC028E6D1E8E76A
:1045E0003046BDE8F88300002DE9F04184B006466E
:1045F0000846FDF7D9FE0446FDF7BDFE80462021A2
:104600002046FDF785FE03784BB10A2201A901304F
:10461000FFF7C5FF07463046FDF758FB20E0194974
:104620003046FEF733F904B0BDE8F08104F1100321
:104630006B4413F80C0CFDF7A3FA03462A46124903
:104640003046FEF723F90134104DBC42EEDB104931
:104650003046FEF71BF9B8F1FF3F01D008F1FF38F3
:104660003046FDF72DFB0028DDD1B8F1000F02DD4B
:10467000084D0024E9E7B8F1FF3FD4D1054D0024EF
:10468000E3E700BFFC8A00081C8B00085088000884
:10469000CC8A00080C88000808B50120FDF776FADE
:1046A0004000014B187008BD4807002010B50024D9
:1046B000294B1C80294B9988186801F075FF284BFD
:1046C0001988284802F01DFA274B1880274B1C70C8
:1046D00018E0274A108028E0254A508027E0244A25
:1046E000908026E0224AD08025E0214A108124E0F3
:1046F0001F4A508123E01E4A908122E01B4A137812
:1047000001331370194B1B781F2B1FD8124B1988BC
:10471000144802F0F6F9144B18804FF6FF739842D4
:10472000ECD0124B1B78012BD3D0052BD4D0092B06
:10473000D5D00D2BD6D0112BD7D0152BD8D0192BE7
:10474000D9D01D2BDAD10A4BD881D7E7034B9988F2
:10475000186801F027FF10BD1C090020B4060020D6
:1047600038050020003001401A090020C40800204C
:10477000B4070020104B00221A700F4B1B78042B3B
:1047800019D810B50D4CA188206801F00DFF0C4B15
:1047900019880C4802F0B5F90B4B1880A1882068E5
:1047A00001F000FF044A137801331370024B1B78A9
:1047B000042BE7D910BD7047C6080020B4060020BE
:1047C00048050020003001401A09002070B5064657
:1047D0000D460B4B9988186801F0E6FE002407E0AF
:1047E00036F81410074802F08CF9074B1880013492
:1047F000A542F5DC024B9988186801F0D3FE70BD24
:10480000B4060020003001401A09002008B5064B0C
:104810001B7823B102210548FFF7D8FF08BD02210C
:104820000348FFF7D3FFF9E75007002044050020B5
:10483000400500202DE9F84F0023674A1370674AAE
:1048400000211160664A6749116005E0664A00214F
:1048500022F813100133DBB2072BF7D94FF0000A0F
:1048600056465746544655461DE0584603F0E2F872
:104870005A4B1860711C2A20FDF79EF92BE0584610
:1048800003F0D8F8564B1860711C2820FDF794F9F6
:1048900030E00136F6B20137FFB20134E4B2534BD7
:1048A0001B78AB426BD0642E7FD80D2C5CD8A84609
:1048B000A146C5EB051323444D4A32F813B0BBF1B2
:1048C0000A0FEAD9584603F0B9F8444B196803F0C7
:1048D000C5FA0028C9D1C8EB08134B44444A32F842
:1048E00013B0584603F0AAF83D4B196803F098FA44
:1048F0000028C4D106F12B0B5FFA8BFBC8EB081321
:104900004B443B4A32F8130003F094F801465846F2
:10491000FDF760F90220FDF739F90028B9D027200A
:10492000FDF73CF9334B196802F0D4FF8346C8EB1E
:1049300008134B442E4A32F8130003F07FF8014667
:10494000584603F06DFA0028A3D0274931F81830F3
:10495000012202FA09F94B4421F8183092441FFA57
:104960008AFA1D4B1A7094E7A5F14D003946C0B282
:10497000FDF722F90135EDB200273C468FE7174CD1
:1049800021682920FDF726F9154D29682720FDF714
:1049900021F92968206802F09BFF01461A20FDF7E3
:1049A00019F93146B220FDF707F90021124B1868BA
:1049B00003F02CFA28B95146BB20FDF7FDF8BDE8FD
:1049C000F88F2B20FDF7EAF80B4B18602C20FDF731
:1049D000E5F80A4B1860EEE7500700204407002076
:1049E0003003002000409C45C407002048070020F9
:1049F000D40700204C050020380700203407002091
:104A000038B5AD4C208840BA80B202F049FC002293
:104A1000AA4B02F0D9FD02F0BFFE0146A820FDF727
:104A2000CBF8608802F03CFC0022A44B02F0CCFDE5
:104A300002F0B2FE0146A920FDF7BEF800211B20BE
:104A4000FDF7C8F80120FDF7A1F800285EDC012081
:104A5000FDF79CF8012800F386800120FDF796F809
:104A6000022800F3B5800120FDF790F8042800F03B
:104A7000E4801B20FDF792F80446B220FDF786F88B
:104A800002F0DCFF0146204603F0E0F88C4903F019
:104A900029F803F0EDF901462620FDF78DF80420F2
:104AA000FDF774F802F0FCFB7FA3D3E9002302F0CA
:104AB00061FC04460D46B220FDF768F802F0F0FBF9
:104AC00022462B4602F056FC02F0AEFE01461820AC
:104AD000FDF780F80520FDF759F802F0E1FB72A31D
:104AE000D3E9002302F046FC04460D46B220FDF750
:104AF0004DF802F0D5FB22462B4602F03BFC02F0BB
:104B000093FE01461920FDF765F838BD6D4C2088ED
:104B100002F0C6FB66A3D3E9002302F02BFC02F0EF
:104B200083FE0146AA20FDF755F8608802F0B8FB25
:104B30005FA3D3E9002302F01DFC02F075FE0146DD
:104B4000AB20FDF747F8AA20FDF728F80446AB2074
:104B5000FDF724F80146204602F0BCFE01461B206A
:104B6000FDF738F873E7574CA08802F099FB50A383
:104B7000D3E9002302F0FEFB02F056FE0146AC2012
:104B8000FDF728F8E08802F08BFB49A3D3E9002366
:104B900002F0F0FB02F048FE0146AD20FDF71AF8E6
:104BA0001B20FCF7FBFF0446AC20FCF7F7FF014697
:104BB000204602F08FFE0446AD20FCF7EFFF0146D1
:104BC000204602F087FE01461B20FDF703F844E76C
:104BD0003C4C208902F064FB35A3D3E9002302F0AA
:104BE000C9FB02F021FE0146AE20FCF7F3FF60890D
:104BF00002F056FB2EA3D3E9002302F0BBFB02F028
:104C000013FE0146AF20FCF7E5FF1B20FCF7C6FFB3
:104C10000446AE20FCF7C2FF0146204602F05AFED1
:104C20000446AF20FCF7BAFF0146204602F052FED0
:104C300001461B20FCF7CEFF15E7224CA08902F0AD
:104C40002FFB1BA3D3E9002302F094FB02F0ECFD41
:104C50000146B020FCF7BEFFE08902F021FB14A35F
:104C6000D3E9002302F086FB02F0DEFD0146B1200D
:104C7000FCF7B0FF1B20FCF791FF0446B020FCF7C7
:104C80008DFF0146204602F025FE0446B120FCF7C8
:104C900085FF0146204602F01DFE01461B20FCF761
:104CA00099FFE6E6AFF30080FCA9F1D24D62503FD8
:104CB000F168E388B5F8543F8407002000002940DC
:104CC00000007A44740700202DE9F843604B00226D
:104CD0001A60604B604A1A60002488E040F26A4320
:104CE0009D4240F299805D4902F0F2FD5C4B1860F4
:104CF0005C4902F0ABFF5C4B1860E5B2A5F16000C7
:104D0000594B1968C0B2FCF765FF584F37F81400CB
:104D100002F0C6FA4CA3D3E9002302F02BFB0022D9
:104D2000534B02F06FF902F05FFD86B227F8146072
:104D3000DFF8408138F8140002F0B2FA42A3D3E958
:104D4000002302F017FB0022494B02F05BF902F04E
:104D50004BFD87B228F81470304602F06FFE814692
:104D60003B4B196803F07AF820B1304602F062FE3E
:104D7000374B1860384602F061FE8046344B1968A4
:104D800003F06CF820B1384602F054FE304B186046
:104D9000304B1968484603F043F820B1304602F022
:104DA00049FE2C4B18602B4B1968404603F038F82D
:104DB00020B1384602F03EFE264B186004F1480749
:104DC000304602F037FE01467F0007F0FE00FCF798
:104DD00001FF6D00EDB26F3DEDB2264B33F81400CC
:104DE00002F028FE01462846FCF7F4FE0134224B6F
:104DF0001B78A3421CDD214B33F8146075BAADB2A9
:104E0000284602F017FE164B1860002E7FF466AF9E
:104E1000154B00221A6070E70146104802F058FD59
:104E20000F4B18600F4902F011FF0F4B186064E739
:104E3000074B19682420FCF7CDFE064B1968252086
:104E4000FCF7C8FEBDE8F8837B14AE47E17A843FE7
:104E5000400700202C0300200000C84200608D4461
:104E6000140900200000204110090020A4070020A0
:104E7000000044409407002048070020B4070020A9
:104E80008446002310208B420CD210B41CF803205F
:104E90004240054C14F812000133DBB28B42F5D3CB
:104EA00010BC7047704700BF380300202DE9F04167
:104EB00082B004460026ADF8046000968DF8040028
:104EC0004FEA0028ADF80080022101A8FFF7D8FFC3
:104ED0000502ADB2ADF802509B4B9988186801F0FD
:104EE00063FB9A4F4146384601F00BFE984B188001
:104EF0002946384601F005FE964B1880964B1E70E9
:104F000013E0964B1988914801F0FBFD904B1880F7
:104F10004FEA102C904A1378914901F803C003F12D
:104F2000010C01F80C00023313708B4B1B78482BDB
:104F3000E7D9854B9988186801F034FB473C092C68
:104F400000F27B81DFE814F033005F008B00B800D3
:104F5000E500FD0051017901790177010134022C4E
:104F60001FDC05EBC5035A1C02EB44027C498A5C3A
:104F700003EB4403C85C00EB022080B24FF6FF73E2
:104F80009842EBD002F08CF90022764B02F01CFB29
:104F9000C5EB0516264402F027FC734B23F81600D8
:104FA000DCE70135082D00F348810024D7E7002510
:104FB000F8E70134052C20DC05EBC5035A1CE01E84
:104FC00002EB400266498A5C03EB4003C85C00EBDD
:104FD000022080B24FF6FF739842EAD002F060F9E7
:104FE0000022604B02F0F0FAC5EB0516264402F0F1
:104FF000FBFB5D4B23F81600DBE70135082D00F3C2
:105000001C810324D6E70025F8E70134082C20DCB6
:1050100005EBC5035A1CA01F02EB400250498A5CF5
:1050200003EB4003C85C00EB022080B24FF6FF7335
:105030009842EAD002F034F900224A4B02F0C4FA56
:10504000C5EB0516264402F0CFFB474B23F81600AC
:10505000DBE70135082D00F3F0800624D6E70025B4
:10506000F8E701340B2C21DC05EBC5035A1CA4F135
:10507000090002EB40023A498A5C03EB4003C85C3A
:1050800000EB022080B24FF6FF739842E9D002F0A5
:1050900007F90022334B02F097FAC5EB05162644B8
:1050A00002F0A2FB304B23F81600DAE70135082D99
:1050B00000F3C3800924D5E70025F8E701340E2C5E
:1050C00021DC05EBC5035A1CA4F10C0002EB4002E5
:1050D00023498A5C03EB4003C85C00EB022080B2EA
:1050E0004FF6FF739842E9D002F0DAF800221D4B28
:1050F00002F06AFAC5EB0516264402F075FB1A4B5E
:1051000023F81600DAE70135082D00F396800C2409
:10511000D5E70025F8E70132082A00F38E80C2EBBC
:10512000C203D81C0E49085C0233CB5C03EB00239E
:105130009BB24FF6FF718B42EDD00C4921F8123033
:10514000E9E70022E8E700BFB40600200030014094
:105150001A09002018090020C50800201C09002099
:10516000C808002000002940D40700207407002050
:10517000334820F81210581D3249085C0433CB5CC8
:1051800003EB00239BB24FF6FF718B4202D02E49F6
:1051900021F812300132072A4FDC02EBC203581CFF
:1051A0002849085CC95C01EB002189B24FF6FF7009
:1051B000814202D0254820F81210D91C2148445CB5
:1051C000991C415C01EB042189B24FF6FF708142CA
:1051D000D1D0072ACCD8A920D04010F0010FC7D0D9
:1051E00049BA174820F81210C5E70022D3E7013169
:1051F000072922DCC1EBC103124AD05C5C1C125DA2
:1052000002EB002292B24FF6FF70824202D01048A9
:1052100020F82120981C0B4A105C0333D35C03EB6D
:1052200000239BB24FF6FF729342E0D0084A02EB94
:1052300081025380DBE70021DAE702B0BDE8F081AC
:1052400084070020C808002094070020A40700203D
:10525000540700204FF0000C844517D210B5138876
:10526000C3F3871E11F80C408EEA040E1B0203F4F0
:105270007C53074C34F81EE08EEA030313800CF1D4
:10528000010C5FFA8CFC8445E9D310BD704700BF68
:10529000D0A100080E4B1B5C0B40118881EA8311E2
:1052A000118002E0490011801846431EDBB248B16C
:1052B000118811F4005FF5D040F25B2080EA4101D3
:1052C0001180F1E71388C3F30D031380704700BF0B
:1052D000C4A1000810B590B000240E94ADF83C4075
:1052E0003222214601A802F009FE41F22F13ADF847
:1052F000043038E002F055028DF83A2003F05503EF
:105300008DF83B301023ADF802300DF102020EA9EA
:105310000420FFF79FFF0DF1020202210846FFF76C
:10532000B9FF9DF839109DF8380004EB44035A1C6E
:1053300001EB002110A800EB420222F83C1C9DF872
:105340003B209DF83A10023302EB012200EB4303AD
:1053500023F83C2C013404EB440300EB4303BDF879
:10536000022023F83C2C072C1DDCF3238DF8383069
:1053700000238DF83930C4F107031D4A32F8133089
:10538000DAB28DF83A201B0A8DF83B3019490978BA
:105390000029AFD102F0AA028DF83A2003F0AA0347
:1053A0008DF83B30AEE7134B1B784BB9114B012204
:1053B0001A70114B9988186801F0F6F800240EE075
:1053C0000C4B00221A70F4E710AB03EB440333F8E4
:1053D0003C1C0A4801F095FB094B18800134182C3D
:1053E000F2DD054B9988186801F0DCF810B010BDAB
:1053F000C40700203C070020B40600200030014014
:105400001A09002008B5944B1B88082B24D8DFE824
:1054100013F00900170029003D005100A000EE0024
:1054200001010C018D4A12781AB901338A4A13809E
:1054300012E0FFF79FF9884A1388013313800BE0CD
:10544000FFF7E4F94D20FFF731FD5020FFF72EFD67
:10545000814A1388013313807F4B1988BD20FCF7E4
:10546000ABFB08BDFFF7D2F97D4BB3F90020002359
:10547000934202DA00BF0133FAE701217948FFF7CE
:10548000A5F9754A138801331380E5E7FFF7BEF9E4
:10549000734BB3F900200023934202DA00BF0133BB
:1054A000FAE701216F48FFF791F96B4A138801333E
:1054B0001380D1E7FFF7AAF9694BB3F90020002365
:1054C000934202DA00BF0133FAE74F20FFF7EEFC08
:1054D000634BB3F900200023934202DA00BF01338B
:1054E000FAE74F20FFF7E2FC5D4BB3F90020002301
:1054F000934202DA00BF0133FAE74720FFF7D6FCF8
:10550000574BB3F900200023934202DA00BF013366
:10551000FAE74820FFF7CAFC514BB3F900200023FB
:10552000934202DA00BF0133FAE74920FFF7BEFCDD
:105530004B4BB3F900200023934202DA00BF013342
:10554000FAE74A20FFF7B2FC434A1388013313807D
:1055500082E7FFF75BF9424BB3F900200023934247
:1055600002DA00BF0133FAE74F20FFF79FFC3C4B04
:10557000B3F900200023934202DA00BF0133FAE7B7
:105580004F20FFF793FC364BB3F9002000239342E2
:1055900002DA00BF0133FAE74B20FFF787FC304BFC
:1055A000B3F900200023934202DA00BF0133FAE787
:1055B0004C20FFF77BFC2A4BB3F9002000239342D9
:1055C00002DA00BF0133FAE74D20FFF76FFC244BEE
:1055D000B3F900200023934202DA00BF0133FAE757
:1055E000FFF764F81C4A13880133138034E7FFF790
:1055F000C1F85020FFF75AFCFFF76CFE5020FFF770
:1056000055FC02211848FFF7E1F8134A13880133CB
:10561000138021E7FFF758FBFFF70CF9FFF7F0F9CC
:105620000D4A13880133138016E7104A138801339B
:105630009BB21380142B7FF60FAF0023064A138012
:105640000A4A13800A4B1988013189B21980BC209B
:10565000FCF7B2FA00E700BF4E0700203403002039
:105660002A0300203C050020400500204A070020B6
:105670004C07002008B5FFF7C5FE08BD036ED3B187
:105680004FF47A73036604E0036E002B07DD0123F9
:105690003BB1826DC36D9A42F6D00023F8E7002338
:1056A000F6E7836D5A1C826503F03F0303441976C5
:1056B0004FF0FF3343617047A0F10400FFF7DEBFF6
:1056C00010B50446017C002201F5C0618068FDF739
:1056D000DEFE617C3F2900D910BD002201F5B061DA
:1056E000A068FDF7D4FEF7E710B504460846144B52
:1056F0002360144B6360144B236014336360A16018
:10570000E26001232374FF2363744FF0FF3363616E
:105710000023A3654022E2654FF47A722266C0221C
:1057200084F86420A36684F87830E36784F88830CE
:105730002146FDF79DFE2046FFF7C2FF204610BD23
:10574000AC7F000810A00008D8A3000808B50174B9
:105750008068FDF7BFFE08BD10B582B004468DF825
:105760000010ADF801309DF810308DF80330059B26
:105770000193437C93420DD1002384F87830A068D4
:10578000617C03685C6808236A4601F5C061A04734
:1057900002B010BD42748068FDF79CFEECE7B1F8E2
:1057A000012045F201039A4211D0012380F888308C
:1057B0000B7880F88030B1F80130A0F88130CB78D8
:1057C00080F883304B68C0F88430002070470B7835
:1057D000402B01D0002070474FF0FF330B714B710D
:1057E00000238B71CB7141220A704FF47A720266EA
:1057F00083654023C365CB78436101207047000077
:105800002DE9F04184B006460C46B1F80120C2F300
:10581000C017CD7825B1013D05EBD575C5F347051A
:1058200003AB00932B4602F03F023946F068FEF7C7
:105830001CF880462378402B0DD0232B3DD08023AD
:1058400023700023237163710223A3710623E37184
:1058500004B0BDE8F08130B30079FCF7EFF9028BBA
:10586000E37823B9039B636043232370F0E713F0CD
:10587000010F09D098F8073042EA034298F908303E
:1058800042EA03626260EFE71449D8F8000002F0D0
:1058900029F902F0EDFA20F07F4398F9062043EA57
:1058A00002636360E0E78023237000232371637148
:1058B0000223A3710623E371CAE70028BFD06368FF
:1058C000002BBCD1B4F801202B4602F03F02394630
:1058D000F068FDF7EBFE60232370B9E700007A441F
:1058E0000B78232B00D070472DE9F04184B0064699
:1058F0000C461546CB7883B94B68B3F1005F04D3EF
:1059000023F00052B2F5006F03D2B3666023237018
:1059100019E04FF0FF3383660CE0876EB7F1FF3F6D
:1059200001D0012B12D096F97480B8F1000F01D08C
:10593000022B1DD080232370002323716371022367
:10594000A3710623E37104B0BDE8F081486880B21A
:10595000FCF764F9A6F870006368C3F3054386F8A2
:10596000733063681B1686F87430BE28CED9E1E721
:10597000606840F3170002F061F8154902F066F91B
:10598000F06663681B1686F87230A5B10293019029
:10599000CDF8008096F873303A4696F87010F068AB
:1059A000FEF76FF9002386F874304FF0FF33B366CB
:1059B0000028ABDABEE702930190CDF8008096F89C
:1059C00073303A4696F87010F068FEF741F9E9E74F
:1059D00000007A4438B504460D460A7802F06003A8
:1059E000602B31D0B1F80130B3F5005F5AD003F429
:1059F0007F40B0F5045F55D0E16819B1B3F5405F61
:105A000000F0858021B143F2010C634500F08580F0
:105A100019B1B0F5445F00F0868045F203018B4276
:105A200000F0868045F204018B4240F09B80402AC2
:105A300000F0918080232B7000232B716B71022367
:105A4000AB710623EB7119E002F010020A7001221B
:105A5000072A0EDCE36DA16D5B1A402B09D0E36DC4
:105A6000591CE16503F03F0323441B7EAB54013214
:105A7000EEE7E36DA16D5B1A402B09D0A068217C95
:105A800003685C6808232A4601F5B061A04738BD69
:105A90002B7843F001032B70C2F1080243EA420362
:105AA0002B70EBE7E87803F47F42B2F5045F0CD08B
:105AB000BE2822D82B78232B0DD0402BDED1FCF72B
:105AC0005FF8686043232B70D8E71B029BB2184431
:105AD000FCF7A4F8ECE76968FCF734F810B9602328
:105AE0002B70CBE780232B7030232B7100236B713D
:105AF0000923AB710623EB71C0E780232B700023D1
:105B00002B716B710223AB710623EB71B6E7002298
:105B100029462046FFF7E4FEB0E701222946204649
:105B2000FFF7DEFEAAE729462046FFF769FEA5E754
:105B3000402A09D080232B7000232B716B71022324
:105B4000AB710623EB7199E7E878FDF769F96860B6
:105B500043232B7092E7E878FDF774F968604323DC
:105B60002B708BE729462046FFF719FE002885D1C8
:105B70008DE70000F0B583B004461546037C03F5BD
:105B8000C0638B4206D0467C06F5B0638B4205D0DD
:105B900003B0F0BD1146FFF71DFFF9E7B2F8017041
:105BA000A7F540539BB2012B08D92B78803B18BF37
:105BB000012384F878306B68E367E9E7D378ABB109
:105BC000012BF2D11349C06E01F08CFF02F050F9A5
:105BD00094F9723040EA03630193022300933B4639
:105BE000324623212046FFF7B7FDDEE7B0F87030DC
:105BF00090F8732043EA024390F9742043EA026369
:105C00000193012300933B4632462321FFF7A4FD75
:105C1000CBE700BF00007A442DE9F0412720FBF7D5
:105C2000BDFF064600240A2C2DDC194B33F81470F6
:105C3000384601F003FF0546314602F00FF908B976
:105C40000134F0E704B304EB8400400001F0F6FEF9
:105C50008046013C0E4B33F81400381A01F0EEFE7A
:105C600004463146284601F033FE214601F0EEFF9E
:105C7000084901F037FF0146404601F029FE02F0D5
:105C8000F7F8044600E064242046BDE8F08100BF38
:105C9000580500200000204170B51520FBF776FF65
:105CA000274B18801C20FBF779FF002102F0B8F881
:105CB000E0B91C20FBF772FF0146224B186802F086
:105CC000CDF8C8B1204A1368013313601E4B1A681F
:105CD0001E4B1B689A4213D9FFF79EFF184B188082
:105CE000174B19881520FBF767FF70BD1C20FBF7C9
:105CF00055FF00F10041E0E7134B00221A60E5E791
:105D00000F4E308801F09AFE04461149114B186875
:105D100001F0E8FE05460320FBF738FF4FF461630E
:105D200003FB00F001F08AFE0146284601F08EFFD9
:105D30000146204601F0CEFD02F0C0F83080CFE7EA
:105D400028090020500500202409002054050020C7
:105D50000000C842200900208368DB075EBF83681B
:105D600043F0010383607047034AD2F8083443F4D8
:105D70000003C2F80834704700200140836823F410
:105D800060230B438360836843F480138360704710
:105D9000836800F1080243F00803836013681B075F
:105DA000FCD47047836843F00403836070478068C5
:105DB000C0F38000704708B50246FFF7F3FF1046B6
:105DC000FFF7F5FF0028FAD108BD0022134610B5F1
:105DD00001FA02F403321E2A43EA0403F8D1002236
:105DE000036101FA02F40332182A43EA0403F8D1EA
:105DF000C36010BD836823F001038360704743686C
:105E000043F4807343607047836823F400638360C6
:105E10007047836843F00203836070471029F0B530
:105E20000FD800276FF03B030124BC463E46E5B285
:105E3000A94207D2013946EA0151C162C0F830C017
:105E40004763F0BD062C09D8157803F13C0E05FA1E
:105E50000EF52F43013401320533E8E7073D052DE8
:105E6000157806D803F11E0E05FA0EF54CEA050C5E
:105E7000F0E79D402E43EDE7836800F1080243F40C
:105E80008003836013685B02FCD47047836843F42B
:105E90008073836070470000044B98420CBF40F24F
:105EA000192040F21A2000F048BD00BF00640040F5
:105EB0002DE9F3410468884624F002040460046874
:105EC000964644F0010404604FF6FF749DF820C02C
:105ED0009DF824109DF828209DF83C609DF84070A6
:105EE0000194019C051D013C019414B14468E40730
:105EF000F7D54468E4076ED50024C4610468B8F19E
:105F0000000F4FD044F0800404600468BEF1000F1D
:105F10004BD044F040040460002B49D0036843F0A8
:105F2000200303600368BCF1000F45D043F0100369
:105F300003600368002942D043F00803036003684C
:105F4000002A3FD043F004030360C369002F3CD014
:105F500043F00043C361C369002E39D043F080434E
:105F6000C3610E9B0D99013BC3F309030B430C99CD
:105F7000C2690B430B990B431343C361036823F0BE
:105F8000010303604FF6FF730193019B013B0193F3
:105F900013B12B68DB07F8D4406800F0010002B0B1
:105FA000BDE8F08124F08004AEE724F04004B2E7BD
:105FB000036823F02003B4E723F01003B8E723F0CD
:105FC0000803BBE723F00403BEE723F00043C1E767
:105FD00023F08043C4E70120E1E70000F0B501258C
:105FE000234C9DF81C70D4F80066854046F00106ED
:105FF000C4F80066D4F81CE6EE432EEA050EC4F899
:106000001CE639B3D4F80C162943C4F80C162AB38D
:10601000D4F804262A4300F1006000F6C840C4F812
:106020000426C0000360069A059B4360104BCAB16A
:10603000D3F814262A43C3F8142627B1D3F81C2614
:106040002A43C3F81C26D3F8002622F00102C3F825
:106050000026F0BDD4F80C163140D6E7D4F804265B
:106060003240D8E7D3F814261640C3F81466E4E7A4
:106070000060004030B4BDF808409DF8105043EA7D
:106080000443029341EA024300220495114630BCC6
:10609000FFF7A4BF30B4BDF808409DF8105044EAA3
:1060A0000344049542EA01430294012230BC0021DA
:1060B000FFF794BF1FB5009201229DF81840CDE96B
:1060C00001340B461146FFF789FF04B010BD436948
:1060D0000B4343617047436923EA010343617047FF
:1060E0002DE9F041804680689DF818E04501079E43
:1060F0002AD4D8F8080004012AD4D8F80800C0002F
:1061000050D54FF4D075022005EB080422B3C90026
:1061100041F0040145F808101BB1236843F0020365
:106120002360636823F00F03636062680EF00F035F
:10613000134363600EF1FF33072B2AD8DFE803F027
:106140002623201B1815120E4FF4C0750020DBE724
:106150004FF4C8750120D7E74905DBE70027F3793D
:1061600063F31F67B37963F31747737963F30F27FB
:10617000337963F307074FF0000CF37863F31F6C78
:10618000B37863F3174C737863F30F2C337863F3AE
:10619000070CC4F808C0E760236843F001032360DC
:1061A000BDE8F0814FF0FF30FAE721B9C36843F052
:1061B0002003C3607047036943F020030361704705
:1061C00019B9C06800F0030070470069FAE72DE9CB
:1061D000F743DDF828900446DDE90E56FFF7F0FF9F
:1061E0000F4680464FF4E0714FF4D870CDE90001BE
:1061F00002A901EB870151F808CC54F80C1004EB0C
:106200000C0011F0040115BF012189F8001089F874
:10621000001054F80C1016BF54F80C10490DC908A2
:10622000196054F80C100B9BC1F3400119704168C0
:106230000C9B090A197041680D9B01F00F01197040
:1062400016B143681B0C33808668C368C6F3072108
:106250006970C6F30741A970C3F307212E702B7133
:10626000C6F307666971C3F30741C3F30763EE70B2
:10627000A971EB711AB139462046FFF796FF4046E7
:1062800003B0BDE8F0830000024A936843F00103C5
:106290009360704700300240014B186018687047E7
:1062A00000300240002310B5044A8B4201DB106825
:1062B00010BD50F8234001331460F6E7003002406F
:1062C000014BB3F8E007704700F0FF1F14230022D2
:1062D000013903FB01039A60DA601A615A610F23E6
:1062E000426889008B40134343607047013989003D
:1062F0008A40426070470139036889008A401A4227
:1063000014BF01200020704714230139594308307D
:106310000B5823F440630B500B5813430B5070473A
:1063200014230139594308300B5823F440730B50A0
:106330000B5813430B50704714230139594308304D
:106340000B5843F080030B50704714230139594315
:1063500008300B5843F020030B500B5823F48043B4
:106360000B50704714230139594308300B5843F040
:1063700010030B50704714230139594308300B5850
:1063800043F001030B50704714230139594308307F
:106390000B5823F001030B5070471423013903FB02
:1063A00001008368DB0758BF02617047142301397D
:1063B00003FB01008368DB0758BF42617047142369
:1063C000013959430C30085880B270471423013901
:1063D00059430C300A50704738B5064DEC68FFF74A
:1063E0006FFFB0F5007F84BFEB6C1C4304F03500F9
:1063F00038BD00BF0020024038B504460D4600F00D
:1064000085F8FFF75DFFB0F5007F124B17D9124AF0
:10641000944214D91A6D42F001021A65258000F0E9
:1064200075F8FFF74DFFB0F5007F0A4B0CD90A4A0B
:10643000944209D91A6D22F001021A6538BD1A6911
:1064400042F001021A61E9E71A6922F001021A61B9
:10645000F4E700BF00200240FFFF070810B5044624
:1064600000F054F8FFF72CFFB0F5007F164B1BD956
:10647000164A944218D91A6D42F002021A655C65F8
:106480001A6D42F040021A6500F040F8FFF718FF5D
:10649000B0F5007F0C4B11D90C4A94420ED91A6DFD
:1064A00022F002021A6510BD1A6942F002021A6156
:1064B0005C611A6942F040021A61E5E71A6922F04C
:1064C00002021A61EFE700BF00200240FFFF070849
:1064D000034A136823F0070303431360704700BFA8
:1064E00000200240034B044A5A6002F188325A608D
:1064F000704700BF0020024023016745024A13692C
:1065000043F08003136170470020024008B5FFF795
:1065100063FFC307FBD408BD38B505460C4689B2F6
:10652000FFF76AFF210CA81CBDE83840FFF764BFE5
:106530002DE9F0414FF00F0C00250768466843FA3B
:1065400005F4E4071CD5072D94BFBE46B646ACB291
:106550004FEA84048ABF203CA4B2A4B20CFA04F827
:106560002EEA080804F1020E02FA0EFE01FA04F403
:106570004EEA040444EA0804072D94BF2746264641
:106580000135102DDBD107604660BDE8F0810000C9
:10659000034A536823F0E0630B430343536070479F
:1065A0000000014001617047090401617047806883
:1065B00008407047C36801EA030221EA030141EA87
:1065C00002410161704700004AF6AA22014B1A609D
:1065D000704700BF00300040062824D8DFE800F0F4
:1065E00004090E13181D2000104B1868C0F34060FA
:1065F00070470E4B1868C0F3C06070470B4B1868AB
:10660000C0F340707047094B1868C0F340407047B2
:10661000064B1868C0F340007047044B186AF9E74E
:10662000024B586AF6E70020704700BF0010024096
:10663000024608B51046FFF7CFFF0028FAD008BD84
:1066400006282AD8DFE800F0040A0F14191E2400D7
:10665000124A136843F08073136070470F4A13683F
:1066600043F08063F8E70D4A136843F08053F3E783
:106670000A4A136843F48033EEE7084A136843F08C
:106680000103E9E7054A136A43F001031362704707
:10669000024A536A43F001035362704700100240FC
:1066A000034A536823F0030303435360704700BF5A
:1066B00000100240034A536823F4701343EA8043F6
:1066C0005360704700100240034AD36A23F470639A
:1066D00043EA0023D362704700100240034AD36AA2
:1066E00023F4704343EA0033D36270470010024042
:1066F000034A536823F4803343EA004353607047EE
:1067000000100240034A536823F4003343EA404335
:106710005360704700100240024B186A00F40040BA
:10672000704700BF00100240024A136A43F400435E
:10673000136270470010024006283BD8DFE800F0E3
:1067400035353525350415001B4B1A6A42F0010218
:106750001A621A6A9007FCD51A6A22F440721A6209
:106760001A6A42F480721A627047134B5A6A42F0F6
:1067700001025A625A6A9107FCD51A6A22F44072E1
:106780001A621A6A42F40072EDE70B4B1A6842F47F
:1067900080321A601A689203FCD51A6A22F4407299
:1067A0001A621A6A42F44072DDE7034A136A23F45C
:1067B00040731362704700BF00100240034A5368E1
:1067C00023F4404343EA8033536070470010024093
:1067D000034A536823F4605343EAC023536070476D
:1067E00000100240034A536823F4E06343EA0023A5
:1067F0005360704700100240034A536823F0F003CF
:1068000043EA00135360704700100240044B5A687B
:1068100018B142F480025A60704722F48002FAE70D
:1068200000100240034AD36A23F00F030343D362EC
:10683000704700BF00100240034AD36A23F0F00300
:1068400043EA0013D362704700100240044BDA6A37
:1068500018B142F48032DA62704722F48032FAE7EB
:106860000010024010B504464378012B0CBF0320F2
:106870000420FFF7E5FEFFF7DBFEA078FFF7BCFF83
:10688000E078FFF7AFFF2079FFF7A2FF6079FFF70D
:1068900095FF207BFFF7BAFFA079FFF719FE20785C
:1068A000FFF708FF6078FFF723FFE07901282DD973
:1068B000FFF7B8FF207A08B1FFF7C8FF607A08B188
:1068C000FFF7BAFFA07A30B1FFF7FEFE0120FFF715
:1068D000B7FEFFF7ADFEE07A30B1FFF7FFFE022012
:1068E000FFF7AEFEFFF7A4FE0020FFF7A9FEFFF7BB
:1068F0009FFE0220FFF7D4FE2269064B1A606269F0
:10690000054B1A60A269054B1A6010BDFFF7FAFE2D
:10691000D0E700BF70050020780500207405002036
:106920000122430903F1804303F50433196800F0A1
:106930001F0082400A431A6070470122430903F195
:10694000804303F50433196800F01F0082401143AF
:106950001960196821EA02021A607047054BD3F8E2
:1069600004289206FBD5D3F8042842F01002C3F89D
:106970000428704700200040054BD3F8042822F07B
:106980001002C3F80428D3F804289206FBD57047F8
:106990000020004038B5044600254FF46770FFF72B
:1069A000BFFF40F29B30FFF7BBFF00F01FFB20460C
:1069B000124CFFF7C1FEC4F80058C4F80458FFF7A2
:1069C000B3FEFFF7CBFF4FF6FF73C4F80858C4F8C7
:1069D0000C58C4F81858C4F81C58C4F82038C4F827
:1069E0002438FFF7C9FFD4F8043823F00803C4F8AB
:1069F0000438D4F804381B07FBD538BD002000400C
:106A000008B5FFF7ABFF064B82B2C0F30340C3F8F3
:106A10000C28C3F80808BDE80840FFF7ADBF00BF69
:106A200000200040034BD3F81808D3F81C3843EA81
:106A3000004070470020004008B5FFF78FFF054B6E
:106A4000020C80B2C3F81828C3F81C08BDE808403F
:106A5000FFF792BF0020004008B54FF46770FFF7C2
:106A60005FFF40F29B30FFF75BFF00F0BFFA084B7F
:106A7000D3F8042822F00802C3F80428D3F8042825
:106A80001107FBD5D3F804289206FBD508BD00BF3B
:106A90000020004038B505464FF467700C46FFF7FC
:106AA0003FFF40F29B30FFF73BFFFFF735FE18B189
:106AB000BDE83840FFF7D0BF2846FFF76BFF204600
:106AC000BDE83840FFF79CBF0A4B98420FD003F552
:106AD0007443984204D0A3F57843984204D0704799
